:060000000A128A11122809
:10000800FE00030EF0000408F1000A08F200831253
:1000180003137F08F3000A128A1198280A128A111A
:100028001528F801F90183010A128A115928831247
:10003800031308080F39F4007408F5003728313025
:1000480008003230080033300800343008003530FA
:1000580008003630080037300800383008003930DA
:100068000800303008007508003A03192328013ABF
:1000780003192528033A03192728063A03192928BA
:10008800013A03192B28033A03192D280E3A0319AC
:100098002F28013A03193128033A03193328073A5C
:1000A8000319352857282D3008000A128A11832091
:1000B8000A128A110A128A11AC200A128A117908C6
:1000C800780403197F288312031386140A128A11ED
:1000D8001B200A128A110A128A11B8200A128A11E0
:1000E800F801F9014130F700EE30F600F60B7A28F6
:1000F800F70B7A2800008312031386106328013057
:100108008316031386008312031386010F308316A8
:10011800031388008312031388018316031301173E
:100128000B168B108B1708008B138B1CA0288B10B9
:100138000130F8000030F9008B177308FF007208CF
:100148008A0071088400700E8300FE0E7E0E09007E
:100158008316031387120716871140309400203046
:100168008312031394000800F40074088312031325
:0A01780093008C1DBD288C110800B7
:02400E0071FF40
:00000001FF
