:060000000A128A11122809
:10000800FE00030EF1000408F2000A08F300831250
:1000180003137F08F4000A128A1113290A128A119D
:100028001528F80183010A128A117A28F500532845
:10003800063083120313880008005B308312031311
:10004800880008004F3083120313880008006630C8
:1000580083120313880008006D308312031388008D
:1000680008007D30831203138800080007308312CC
:100078000313880008007F308312031388000800E8
:100088006F3083120313880008003F308312031374
:1000980088000800403083120313880008007508A0
:1000A8002D3A03194E281D3A03194928013A031914
:1000B8001C28033A03192128013A03192628073A6C
:1000C80003192B28013A03193028033A0319352854
:1000D800013A03193A280F3A03193F28013A03193C
:1000E8004428762883120313880108000A128A110B
:1000F800EE200A128A110A128A11AF200A128A11F6
:100108000A128A1101210A128A117808031989280A
:1001180080300A128A11C6200A128A1178080A1237
:100128008A11DA200A128A1178080A128A111A200A
:100138000A128A11F801023083120313A200043054
:10014800A100BA30A000A00BA728A10BA728A20BDA
:10015800A7280000892838300A128A11C6200A12F6
:100168008A110C300A128A11C6200A128A11063026
:100178000A128A11C6200A128A1101300A128A113B
:10018800C6200800F70077088312031386000710BB
:1001980087140D30F600FB30F500F50BD128F60B6F
:1001A800D128D6288312031387100800F700770890
:1001B800831203138600071487140D30F600FB30F2
:1001C800F500F50BE528F60BE528EA28831203135A
:1001D8008710080083160313860183120313860110
:1001E80083160313071087108801831203138801ED
:1001F8000630831603139F00080083160313871223
:10020800071687158516403094002430831203138F
:100218009400831603138C150B178B1708008C1D7D
:100228001A298C111308F0007008F8007408FF00F0
:1002380073088A0072088400710E8300FE0E7E0E19
:020248000900AB
:02400E0071FF40
:00000001FF
