:060000000A128A11122809
:10000800FE00030EF0000408F1000A08F200831253
:1000180003137F08F3000A128A11A0280A128A1112
:100028001528FA01FB0183010A128A111B280A12FA
:100038008A117F200A128A117B087A040319202862
:10004800FA01FB018312031308080F39F400F501C4
:100058007408F6007508F7004F2801304B28023065
:100068004B2803304B2804304B2805304B280630EA
:100078004B2807304B2808304B2809304B282A30AA
:100088004B28F801F9017A282B304B280F30F8005B
:100098000030F9007A287708003A031954284A28CA
:1000A8007608003A03193128013A03193328033A2C
:1000B80003193528063A03193728013A031939284C
:1000C800033A03193B280E3A03193D28013A03194C
:1000D8003F28033A03194128063A03194328013AED
:1000E80003194528033A031948284A28780883122F
:1000F8000313990020280130831603138600831206
:10010800031386010F308316031388008312031329
:10011800880183160313011719309900181218154E
:1001280083120313981783160313181398160B16C4
:100138008B100B178B1708008B138B1CA8288B10A0
:100148000130FA000030FB008B177308FF007208BB
:100158008A0071088400700E8300FE0E7E0E09006E
:02400E0071FF40
:00000001FF
