:060000000A128A11ED2F27
:1006A00064008001840A0406031900340406512BF7
:1006B000F500750883120313860002308700E830C6
:1006C000F0000330F1000A128A117D238312031314
:1006D00087010800F50075088312031386000330B4
:1006E0008700E830F0000330F1000A128A117D2300
:1006F00001308312031387000800F301F40174082A
:10070000803AF2007108803A7202031D892B70084A
:100710007302031808000130F3070318F40A0030CD
:10072000F4077F2B38300A128A1158230A128A11D3
:1007300000300A128A1158230A128A1101300A1253
:100740008A1158230A128A1106300A128A11582374
:100750000A128A110C300A128A115823080000303C
:10076000FC000030FB000030FA000030F900701C83
:10077000CD2B7408F907750803110318013E031DFA
:10078000FA07760803110318013E031DFB077708DB
:1007900003110318013E031DFC070130F80003108C
:1007A000F40DF50DF60DF70DF80BCF2B01300310FE
:1007B000F30CF20CF10CF00CFF3E031DD72B730869
:1007C000720471047004031DB72B7C08F3007B08CE
:1007D000F2007A08F1007908F0000800FA01F71F2A
:1007E000FE2BF409F509F609F709F40A0319F50ACD
:1007F0000319F60A0319F70AFA01FA0AF31F0B2C78
:10080000F009F109F209F309F00A0319F10A0319D1
:10081000F20A0319F30A73087204710470040319CD
:100820004E2CF901F90AF31B232C0130F8000310B8
:10083000F00DF10DF20DF30DF80B172C0130F8004F
:100840007808F907132C73087702031D312C7208FE
:100850007602031D312C71087502031D312C7008BE
:100860007402031C412C7008F4027108031C710F00
:10087000F5027208031C720FF6027308031C730F53
:10088000F70201300310F30CF20CF10CF00CFF3EF8
:10089000031D422C0130F902031D232C7A08031991
:1008A0005C2CF409F509F609F709F40A0319F50AAD
:1008B0000319F60A0319F70A7708F3007608F2001D
:1008C0007508F1007408F000080083120313A101F9
:1008D000F31F772CF009F109F209F309F00A031963
:1008E000F10A0319F20A0319F30AA101A10AF71F79
:1008F000882CF409F509F609F709F40A0319F50A31
:100900000319F60A0319F70A0130F8007808A1065E
:100910000030A5000030A4000030A3000030A20089
:1009200073087204710470040319DD2CA001A00A7D
:10093000F31BA82C0130F8000310F00DF10DF20D9F
:10094000F30DF80B9C2C0130F8007808A007982CC8
:100950000130F8000310A20DA30DA40DA50DF80B96
:10096000AA2C73087702031DBF2C72087602031DA0
:10097000BF2C71087502031DBF2C70087402031C84
:10098000D02C7008F4027108031C710FF502720874
:10099000031C720FF6027308031C730FF702221474
:1009A00001300310F30CF20CF10CF00CFF3E031DB0
:1009B000D12C0130A002031DA82C21080319EB2C17
:1009C000A209A309A409A509A20A0319A30A0319E4
:1009D000A40A0319A50A2508F3002408F200230835
:1009E000F1002208F0000800193083160313990063
:1009F000181283120313981718138316031318156C
:100A0000831203131816831603138601F030870030
:100A100088018312031386010030CC000030CB0024
:100A20000030CA000030C9002D308400A030A6007C
:100A30000408A7000C30A8002608840083130008CF
:100A4000A900A60A2708840029088000A70AA80B85
:100A50001C2DD501D601D901DA01D701D801C50174
:100A6000C601C701C8010030D0000030CF000030FF
:100A7000CE000030CD000030D4000030D300003074
:100A8000D2000030D100393084005D088000840A33
:100A90005E088000840A5F088000840A6008800085
:100AA000840A61088000840A620880003F30840064
:100AB00063088000840A64088000840A6508800056
:100AC000840A66088000840A67088000840A68082F
:100AD00080000A128A1192230A128A11A2300A1285
:100AE0008A1158230A128A11053083120313DB007E
:100AF0000030DC00DC1B8C2D2D300A128A116A2399
:100B00000A128A11FF3083120313DB070318DC0A71
:100B1000FF30DC07DC1F7C2DA2300A128A1158231B
:100B20000A128A11053083120313DB000030DC0047
:100B3000DC1BAA2D2D300A128A116A230A128A118F
:100B4000FF3083120313DB070318DC0AFF30DC07D6
:100B5000DC1F9A2DE2300A128A1158230A128A11D8
:100B6000053083120313DB000030DC00DC1BCF2DCB
:100B70005B08A60026072D3E840083130008303E44
:100B80000A128A116A230A128A11FF308312031390
:100B9000DB070318DC0AFF30DC07DC1FB82D8C1ED6
:100BA000CF2D1A08A600A7012608D5002708D600D1
:100BB0005A08803AFF0080307F02031DE12D033088
:100BC00059020318602E831203135608803AFF005F
:100BD00080307F02031DEE2D0A3055020318602E6F
:100BE000831203135908913E0A128A1158230A12DC
:100BF0008A11831203135908A6002607393E840080
:100C0000550883138000840A560880005908A600FE
:100C10002607393E84000008303E0A128A116A23F2
:100C20000A128A11831203135908A6002607393EB7
:100C3000840083130008A700840A0008A80027087E
:100C4000A9002808AA000030AA1BFF30AB00AC00A6
:100C50005008F3004F08F2004E08F1004D08F00074
:100C60000030F7000030F6000030F5000A30F400E4
:100C70000A128A11AF230A128A1170088312031311
:100C8000A90771080318710F462E472EAA0772088C
:100C90000318720F4C2E4D2EAB0773080318730AFE
:100CA000AC072C08D0002B08CF002A08CE0029085A
:100CB000CD000130D9070318DA0A0030DA07672FB0
:100CC000831203135808803AFF0080307F02031D0F
:100CD0006B2E033057020318EF2E033083120313D9
:100CE00059065A04031DEF2E5608803AFF00803043
:100CF0007F02031D7D2E0A3055020318EF2E83124A
:100D000003135708D13E0A128A1158230A128A1176
:100D1000831203135708A60026073F3E8400550898
:100D200083138000840A560880005708A60026070F
:100D30003F3E84000008303E0A128A116A230A12DC
:100D40008A11831203135708A60026073F3E84002A
:100D500083130008A700840A0008A8002708A90038
:100D60002808AA000030AA1BFF30AB00AC005408D2
:100D7000F3005308F2005208F1005108F00000306F
:100D8000F7000030F6000030F5000A30F4000A12D7
:100D90008A11AF230A128A11700883120313A9075C
:100DA00071080318710FD52ED62EAA0772080318E2
:100DB000720FDB2EDC2EAB0773080318730AAC0727
:100DC0002C08D4002B08D3002A08D2002908D1000F
:100DD0000130D7070318D80A0030D807672F03302F
:100DE0008312031359065A04031D672F0330570655
:100DF0005804031D672FCE300A128A1158230A1295
:100E00008A112A308312031355065604031D332F0B
:100E10000130C7000030C80078300A128A116A23F6
:100E20000A128A11831203135008F3004F08F200CC
:100E30004E08F1004D08F0005408F7005308F60082
:100E40005208F5005108F4000A128A11AF230A1261
:100E50008A11730883120313CC007208CB00710847
:100E6000CA007008662F2B3055065604031D672FE5
:100E70000130C5000030C6002B300A128A116A23E7
:100E80000A128A11831203134D085107A60000307D
:100E9000031801304E07A8010318A80A5207A7003B
:100EA0000318A80A4F082807A9010318A90A53071D
:100EB000A8000318A90A500829075407A9002908FF
:100EC000CC002808CB002708CA002608C90046081D
:100ED0004504031D6F2F4808470403198C2DDB01BF
:100EE000DC015C08803AFF0080307F02031D7A2F0E
:100EF00006305B020318D02F0030F3000030F20000
:100F00000030F1000A30F000831203134C08F700A0
:100F10004B08F6004A08F5004908F4000A128A1145
:100F2000EE230A128A11831203135B08A600260718
:100F30002D3E8400700883138000840A71088000AD
:100F40000030F3000030F2000030F1000A30F00011
:100F50004C08F7004B08F6004A08F5004908F40071
:100F60000A128A1165240A128A1173088312031364
:100F7000CC007208CB007108CA007008C9000130AB
:100F8000DB070318DC0A0030DC075C08803AFF004E
:100F900080307F02031DCE2F06305B02031C7C2FA6
:100FA000003083120313D0000030CF000030CE0099
:100FB0000030CD000030D4000030D3000030D2002B
:100FC0000030D100D901DA01D701D801D501D6010D
:100FD000C501C601C701C8018C2D83135D30840093
:100FE00069300A128A1150230A128A11A030840033
:100FF000AC300A128A11502383010A128A11F42C90
:02400E0071FF40
:00000001FF
