:060000000A128A11122809
:10000800FE00030EF0000408F1000A08F200831253
:1000180003137F08F3000A128A116F2E0A128A113D
:100028001528F801F90183160313AD01AE01AF01DC
:10003800B00183010A128A1121280A128A114B265B
:100048000A128A110A128A118F260A128A11E830B6
:10005800F4000330F5000A128A11CC260A128A111C
:10006800831203131F1583160313AB01AC01A901F7
:10007800AA01A701A801831603132E082D0403194A
:100088004229AD01AE01831203131E088316031320
:10009800A000A1012008AB002108AC002C08A10099
:1000A8002B08A0002008A100A0012008AB0021080F
:1000B800AC002B081E04A0002C08A1002008AB00EF
:1000C8002108AC002C08F701F7072B08F601F60702
:1000D800CD30F4000030F5000A128A11B2240A1259
:1000E8008A11750883120313A601A6077408A501CF
:1000F800A5070A128A1126260A128A1183120313E7
:100108002508EA002608EB002708EC000A128A11E5
:1001180052240A128A11831203136A0883160313DE
:10012800A400831203136B0883160313A50083121C
:1001380003136C0883160313A60024088312031301
:10014800BB0083160313250883120313BC00831610
:100158000313260883120313BD000A128A115A23B7
:100168000A128A11831203133C0883160313A80189
:10017800A807831203133B0883160313A701A707D5
:100188002C08F701F7072B08F601F607CD30F40025
:100198000030F5000A128A110F250A128A11750813
:1001A80083120313A601A6077408A501A5070A125E
:1001B8008A1126260A128A11831203132508AE0013
:1001C8002608AF002708B000D730AB00A330AC003A
:1001D8004130AD000A128A11A2220A128A11831232
:1001E80003132B08EA002C08EB002D08EC000A1278
:1001F8008A1152240A128A11831203136A08831679
:100208000313A400831203136B0883160313A500BA
:10021800831203136C0883160313A60024088312A1
:100228000313BB0083160313250883120313BC00B2
:1002380083160313260883120313BD000A128A11BA
:100248005A230A128A11831203133C0883160313D4
:10025800AA01AA07831203133B0883160313A901F3
:10026800A9070A3029062A04031D4229A901AA015F
:100278000130A7070318A80A0030A80730082F0480
:1002880003196E29AF01B0012808A1002708A000B2
:10029800A00EA10EF030A10520080F39A104F030FE
:1002A800A00529082004A2002A082104A300981CFC
:1002B8005B2922088312031399008830F400133055
:1002C800F5000A128A11CC260A128A118316031322
:1002D800AF01B00180300A128A11A6260A128A11CB
:1002E800831603132708303E0A128A11B9260A1208
:1002F8008A112E300A128A11B9260A128A11831617
:1003080003132908303E0A128A11B9260A128A11E3
:10031800E830F4000330F5000A128A11CC260A12DC
:100328008A11831203131F153F28831203135D08D4
:10033800E3005E08E4005F08E5000310640D650D46
:10034800E6006608E9006008E3006108E400620866
:10035800E5000310640D650DE6006608E80069080D
:100368000319C229680869020318C9296903FF3AF1
:100378006807E30019306302031CC9296008DD001F
:100388006108DE006208DF00080068080319080039
:10039800690868020318D8296803FF3A6907E30067
:1003A80019306302031808000630E3006308E70009
:1003B800DF1BE717E21B6717DE17FF30DD05FF308D
:1003C800DE050030DF05E117FF30E005FF30E1050D
:1003D8000030E205680869020318182A0130031082
:1003E800E00DE10DE20DFF3E031DF3290130E802A7
:1003F800680869060319132A0130E70267080739F4
:100408000319132AF22901300310DF0CDE0CDD0C6E
:10041800FF3E031D082A0130E3006308E907690865
:1004280068060319412A072A690868020318412A3D
:1004380001300310DD0DDE0DDF0DFF3E031D1D2A0B
:100448000130E9026808690603193D2A0130E7020C
:100458006708073903193D2A1C2A01300310E20CEA
:10046800E10CE00CFF3E031D322A0130E300630873
:10047800E80769086806031D312AE71F532AFF3079
:10048800DD06FF30DE06FF30DF060130DD07003015
:1004980003180130DE07003003180130DF07671F3B
:1004A800652AFF30E006FF30E106FF30E206013042
:1004B800E007003003180130E1070030031801306D
:1004C800E207E7015D08E0075E08031103185E0A0A
:1004D800031DE1075F08031103185F0A031DE20704
:1004E800E21F882AFF30E006FF30E106FF30E2060F
:1004F8000130E007003003180130E107003003182D
:100508000130E207E701E70A6008A0006108A100DE
:100518006208A2006908E3006308A3006708E40012
:100528006408A4000A128A11E8238312031320081E
:10053800DD002108DE002208DF0008008312031313
:100548002E08B1002F08B2003008B3000310320D96
:10055800330DB4003408B900B908031DBA2A0030B5
:10056800AB000030AC000030AD0008002B08B10033
:100578002C08B2002D08B3000310320D330DB4005F
:100588003408BA00BA08031DD02A0030AB00003086
:10059800AC000030AD0008000030B6000030B700F5
:1005A8000030B80089303A07B1003108B9022E0886
:1005B800B1002F08B2003008B30010300310B30C9C
:1005C800B20CB10CFF3E031DE22A3108B400340816
:1005D800BA002B08B1002C08B2002D08B300103067
:1005E8000310B30CB20CB10CFF3E031DF42A310802
:1005F800B4003408BA068030B1003108BA05AF1724
:10060800FF30AE05FF30AF050030B005AC17FF3046
:10061800AB05FF30AC050030AD051830B10031082E
:10062800B50001300310B60DB70DB80DFF3E031D20
:10063800162B2D083002031D272B2C082F02031D13
:10064800272B2B082E02031C342B2B08AE022C0858
:10065800031C2C0FAF022D08031C2D0AB002361400
:1006680001300310AE0DAF0DB00DFF3E031D352B4D
:100678000130B502031D152B3608A0003708A1006C
:100688003808A2003908B1003108A3003A08B200BE
:100698003208A4000A128A11E823831203132008DF
:1006A800AB002108AC002208AD0008008312031338
:1006B8003B08BF003C08C0003D08C1000310400DC6
:1006C800410DC2004208C800C808031D742B003041
:1006D800BE000030BD000030BC000030BB00080088
:1006E8003B08BF003C08C0003D08C100173003109C
:1006F800C10CC00CBF0CFF3E031D7B2B3F08C20082
:100708004208C300BC17FF30BB05FF30BC050030F2
:10071800BD053B08C4003C08C5003D08C600C7012C
:100728008E30C802C81FB62B4808803A8F3E03187F
:10073800A62B0030BE000030BD000030BC000030E9
:10074800BB00080001300310C70CC60CC50CC40C54
:10075800FF3E031DA72B0130BF003F08C807031940
:10076800D12BA62B18304802031CCE2B0030BE001C
:100778000030BD000030BC000030BB000800013074
:10078800BF000310C40DC50DC60DC70DBF0BC52B8B
:100798000130C802C808031DC32B43080319DF2B07
:1007A800C409C509C609C709C40A0319C50A031932
:1007B800C60A0319C70A4708BE004608BD0045080F
:1007C800BC004408BB000800831203132308031964
:1007D800F22B220821042004031D052C0030A00060
:1007E8000030A1000030A20008000130F4007408B5
:1007F800A30701300310A20CA10CA00CFF3E031D9F
:10080800FE2BFE3022050319202CF92B0130F400B1
:100818007408A3070130A007003003180130A107AE
:10082800003003180130A20701300310A20CA10CFC
:10083800A00CFF3E031D192CFF30220503192F2C95
:100848000A2C0130A30201300310A00DA10DA20D46
:10085800FF3E031D282CA11F252C2318392CFF30FF
:10086800A0057F30A105FF30A2050310A30C2308C3
:10087800F400F501F60110300310F40DF50DF60D36
:10088800FF3E031D402C7408A0047508A1047608D7
:10089800A204240803190800A217080083120313EE
:1008A8006A08DD006B08DE006C08DF006A08D1000A
:1008B8006B08D2006C08D3000A128A115E250A124E
:1008C8008A11831203135108DA005208DB00530817
:1008D800DC000A128A11DB260A128A11831203131A
:1008E8005A08E0005B08E1005C08E2000A128A117D
:1008F80099210A128A11831203135D08ED005E081C
:10090800EE005F08EF006D08DD006E08DE006F087E
:10091800DF006A08E0006B08E1006C08E2000A12D8
:100928008A1199210A128A11831203135D08EA00B9
:100938005E08EB005F08EC006A08D1006B08D20083
:100948006C08D3000A128A115E258312031351081A
:10095800EA005208EB005308EC0008008312031366
:10096800A201F51FBE2CF409F509F40A0319F50ACA
:10097800A201A20AF71FC92CF609F709F60A0319FA
:10098800F70A0130A0002008A206A301A4017508F7
:1009980074040319002DA101A10AF51BDF2C0130F5
:1009A8000310F40DF50DFF3E031DD42C0130A000FB
:1009B8002008A107D12C01300310A30DA40DFF3E80
:1009C800031DE02C75087702031DEC2C74087602D1
:1009D800031CF52C7408F6027508031CF703F702CC
:1009E800231401300310F50CF40CFF3E031DF62C04
:1009F8000130A102031DDF2C22080319082DA309C9
:100A0800A409A30A0319A40A2408F501F507230871
:100A1800F401F407080083120313A201F71F1B2D2A
:100A2800F609F709F60A0319F70AA201A20AF51F3F
:100A3800222DF409F509F40A0319F50A7508740456
:100A480003194F2DA101A10AF51B362D0130031002
:100A5800F40DF50DFF3E031D2B2D0130A0002008DD
:100A6800A107282D75087702031D3C2D740876020E
:100A7800031C442D7408F6027508031CF703F702DB
:100A880001300310F50CF40CFF3E031D452D013019
:100A9800A102031D362D22080319572DF609F7095F
:100AA800F60A0319F70A7708F501F5077608F4013D
:100AB800F4070800831203135108F4005208F500E4
:100AC8005308F6005830D4005408F7000A128A1167
:100AD800EA250A128A1183120313D91F7A2D0030CE
:100AE800D1000030D2000030D30008000030590295
:100AF800153003195802031808005108BB005208A2
:100B0800BC005308BD000A128A115A230A128A111E
:100B1800831203133E08CC003D08CB003C08CA00F2
:100B28003B08C9000A128A11A82583120313490831
:100B3800D5004A08D6004B08D7005508D1005608FA
:100B4800D2005708D300080083120313D0018E3057
:100B5800CD004D08CF00CC1FBE2DC909CA09CB094D
:100B6800CC09C90A0319CA0A0319CB0A0319CC0A02
:100B7800D001D00AFF304C050319D02D01300310E5
:100B8800CC0CCB0CCA0CC90CFF3E031DC32D013085
:100B9800CD004D08CF07BE2D4908A0004A08A10086
:100BA8004B08A2004F08CD004D08A3005008CE0006
:100BB8004E08A4000A128A11E8238312031320089E
:100BC800C9002108CA002208CB000800760875046D
:100BD8007404031DF62D7708840083138001840AAA
:100BE8008001080076087F3983120313A000A10151
:100BF8000310A00DA10D770884002008831380003E
:100C0800840A21088000750D750D0139A000A10125
:100C18007708840020088004840A21088004770863
:100C2800840082308007840F00080318000AFF0040
:100C3800FF307F0780008403760880393F38F6004C
:100C4800F513080083120313AA01A61F322EA50963
:100C5800A609A50A0319A60AAA01AA0A2508A00036
:100C68002608A100A2018E30A8002808A3002A089F
:100C7800A9002908A4000A128A11E8238312031381
:100C88002008A5002108A6002208A70008000F30A8
:100C9800831603138600880180309F004130831239
:100CA80003139F000C13831603130C170B1701175C
:100CB8000B168B108B171930990018128312031317
:100CC8009817831603131815831203131813831622
:100CD8000313981608008B130C1F792E0C13013080
:100CE80083160313AD000030AE008B1C822E8B10D0
:100CF800013083160313AF000030B0008B17730860
:100D08008312FF0072088A0071088400700E830045
:100D1800FE0E7E0E090038300A128A11A6260A1223
:100D28008A110C300A128A11A6260A128A11063074
:100D38000A128A11A6260A128A1101300A128A1189
:100D4800A6260800F6007608831203138800861288
:100D580006138617E830F4000330F5000A128A11EA
:100D6800CC268312031386130800F6007608831234
:100D780003138800861606138617E830F40003303C
:100D8800F5000A128A11CC26831203138613080071
:100D9800FF30F4070318F50AFF30F507FF30750632
:100DA800031DD82EFF30740603190800CC2E8312B9
:100DB80003135C085B045A04031908008030DC063E
:020DC800080021
:02400E0071FF40
:00000001FF
