:060000000A128A11122809
:10000800FE00030EF0000408F1000A08F200831253
:1000180003137F08F3000A128A1191280A128A1121
:100028001528F601F70183010A128A11792883122B
:10003800031308080F39F4007408F5003728313025
:1000480008003230080033300800343008003530FA
:1000580008003630080037300800383008003930DA
:100068000800303008007508003A03192328013ABF
:1000780003192528033A03192728063A03192928BA
:10008800013A03192B28033A03192D280E3A0319AC
:100098002F28013A03193128033A03193328073A5C
:1000A8000319352857282D3008000130831603130B
:1000B80086008312031386010F308316031388000A
:1000C800831203138801831603130117193099004B
:1000D800181218158312031398178316031318138D
:1000E80098160B168B108B1708000A128A115920C4
:1000F8000A128A117708760403197E2883160313D7
:10010800981C82280A128A111B200A128A1183124B
:1001180003139900F601F7017E288B138B1C99288D
:100128008B100130F6000030F7008B177308FF00C2
:1001380072088A0071088400700E8300FE0E7E0E1D
:020148000900AC
:02400E0071FF40
:00000001FF
