:060000000A128A11FC2F18
:100E4E00F100710883120313860007148714F9301A
:100E5E00F0000000F00B302F342F0000831203132C
:100E6E0087100800F1007108831203138600071023
:100E7E008714F930F0000000F00B422F462F0000CF
:100E8E00831203138710080038300A128A1139278B
:100E9E000A128A110C300A128A1139270A128A1183
:100EAE0006300A128A1139270A128A1101300A12E3
:100EBE008A11392708008316031386018312031340
:100ECE008601831603130710871087178801831274
:100EDE00031388011930831603139900181218157D
:100EEE00831203139817181318168B1708000A127B
:100EFE008A1162270A128A110A128A114B270A12C4
:100F0E008A11831203138C1E882F1A08F20072089E
:100F1E00F30080300A128A1139270A128A117308D7
:100F2E000A128A1127270A128A1173080A128A11C5
:100F3E00A3270A128A11882FF000D72F06308312AA
:100F4E000313880008005B30831203138800080027
:100F5E004F30831203138800080066308312031388
:100F6E00880008006D3083120313880008007D305E
:100F7E0083120313880008000730831203138800BE
:100F8E0008007F3083120313880008006F3083122D
:100F9E000313880008003F308312031388000800F3
:100FAE007008303A0319D22F013A0319A52F033ACC
:100FBE000319AA2F013A0319AF2F073A0319B42FB9
:100FCE00013A0319B92F033A0319BE2F013A031937
:100FDE00C32F0F3A0319C82F013A0319CD2FF72F3C
:100FEE004030831203138800080083010A128A110D
:020FFE007E2F44
:02400E0071FF40
:00000001FF
