:060000000A128A11122809
:10000800FE00030EF3000408F4000A08F50083124A
:1000180003137F08F6000A128A1179280A128A1136
:10002800152883010A128A115229F0005228063035
:1000380083120313880008005B30831203138800BF
:1000480008004F30831203138800080066308312BB
:100058000313880008006D3083120313880008001A
:100068007D308312031388000800073083120313BE
:10007800880008007F3083120313880008006F305F
:1000880083120313880008003F308312031388008B
:1000980008004030831203138800080070082D3AC6
:1000A80003194D281D3A03194828013A03191B283A
:1000B800033A03192028013A03192528073A031996
:1000C8002A28013A03192F28033A03193428013A38
:1000D800031939280F3A03193E28013A031943280E
:1000E800752883120313880108001412F701F90117
:1000F800F801941B8128141F88281308F20072083D
:10010800F70094131413141683160313941E14196A
:10011800B328831203131308F2007208F70083163A
:100128000313141C9328831203131308F200720894
:10013800F90080300A128A112E210A128A117908D0
:100148000A128A1140210A128A1179080A128A11A0
:1001580019200A128A11831203131416C828941E30
:10016800141DC828831203131308F2007208F7003D
:1001780083160313141078088312031393001416BC
:10018800831603131418C42883128C117608FF00F1
:1001980075088A0074088400730E8300FE0E7E0EB4
:1001A800090083120313A00083160313871507168B
:1001B800363083120313940083160313110880301A
:1001C80094008312031320088316031393008C15DD
:1001D800831203138C110B178B17080038300A127F
:1001E8008A111C210A128A110C300A128A111C2148
:1001F8000A128A1106300A128A111C210A128A115F
:1002080001300A128A111C21080083160313860183
:1002180083120313860183160313870183120313C2
:1002280087018316031388018312031388010800CA
:1002380083120313A1002108860007108714F930E0
:10024800A0000000A00B2529292900008312031310
:1002580087100800F1007108831203138600071045
:100268008714F930F0000000F00B37293B29000013
:100278008312031387100800F10071088312031317
:10028800860007148714F930F0000000F00B4929A4
:100298004D29000083120313871008000A128A11DF
:1002A80009210A128A1110300A128A11D5200A125D
:0E02B8008A110A128A11F2200A128A11622992
:02400E0071FF40
:00000001FF
