:060000000A128A11122809
:10000800FE00030EF0000408F1000A08F200831253
:1000180003137F08F3000A128A11A1280A128A1111
:100028001528F801F90183010A128A115928831247
:10003800031308080F39F4007408F5003728313025
:1000480008003230080033300800343008003530FA
:1000580008003630080037300800383008003930DA
:100068000800303008007508003A03192328013ABF
:1000780003192528033A03192728063A03192928BA
:10008800013A03192B28033A03192D280E3A0319AC
:100098002F28013A03193128033A03193328073A5C
:1000A8000319352857282D3008000A128A118C2088
:1000B8000A128A110A128A11B5200A128A11F70146
:1000C80079087804031964280A128A11DC200A12B4
:1000D8008A1110300A128A11C4200A128A110A12CF
:1000E8008A111B200A128A110A128A11C4200A12C4
:1000F8008A110A128A11D5200A128A11F930F600DB
:100108000000F60B842888280000F801F90164280B
:100118000130831603138600831203138601FF3010
:1001280083160313880083120313880183160313AD
:1001380001170B168B108B1708008B138B1CA92823
:100148008B100130F8000030F9008B177308FF009E
:1001580072088A0071088400700E8300FE0E7E0EFD
:100168000900831603138715071628308312031313
:100178009400831603139101940109309300080039
:10018800F4000A128A11CD20740883120313930015
:1001980008008316031311081F3903191419CD28F1
:1001A80008000A128A11CD208316031311150800BE
:0E01B8000A128A11CD208316031311140800B9
:02400E0071FF40
:00000001FF
