:060000000A128A11122809
:10000800FE00030EF1000408F2000A08F300831250
:1000180003137F08F4000A128A1107290A128A11A9
:100028001528F601F701AC01AD01AE01AF010A12C6
:100038008A11EC210A128A11B0000A128A11ED21E4
:10004800B10083010A128A11292830308312031360
:10005800A8000030A9003030AA000030AB000430FE
:100068008316031381008B160B1101170B168B10C7
:100078008B170130860087010F3088000A128A1119
:1000880091210A128A11831203133108A701A707C5
:100098003008A601A6072D082C04031D02292F08E5
:1000A8002E0403195F283108A701A7073008A60105
:1000B800A607AE01AF0181300A128A11DA210A12AD
:1000C8008A118312031328080A128A11C7210A12F7
:1000D8008A1180300A128A11DA210A128A118312CF
:1000E80003132A080A128A11C7210A128A118312D5
:1000F80003132708A101A1072608A001A0070A12D7
:100108008A116F210A128A113930831203132806C3
:100118002904031DA4283030A8000030A900393074
:100128002A062B04031D9D283030AA000030AB009E
:1001380002290130AA070318AB0A0030AB070229CD
:100148000130A8070318A90A0030A9074F282F086B
:100158002E040319B7283108A701A7073008A601FC
:10016800A607AE01AF0181300A128A11DA210A12FC
:100178008A118312031328080A128A11C7210A1246
:100188008A1180300A128A11DA210A128A1183121E
:1001980003132A080A128A11C7210A128A11831224
:1001A80003132708A101A1072608A001A0070A1226
:1001B8008A116F210A128A1130308312031328061C
:1001C8002904031DFC283930A8000030A90030306C
:1001D8002A062B04031DF5283930AA000030AB008D
:1001E8004F28FF30AA070318AB0AFF30AB074F2888
:1001F800FF30A8070318A90AFF30A9072D082C0407
:1002080003194F28AB288B138B1C5B298B1008080C
:100218000F39F0007008F50030290C302929183002
:10022800292925302929313029293D3029294930E2
:10023800292955302929623029296E302929013088
:10024800AC000030AD0056297A30B0000030B10063
:100258005629AC01AD0156297508003A0319112930
:10026800013A03191329033A03191529063A031900
:100278001729013A03191929033A03191B290E3AB8
:1002880003191D29013A03191F29033A03192129C2
:10029800063A03192329013A03192829033A0319AD
:1002A8002D2956290130AE000030AF0062290B1D00
:1002B80062290B110130F6000030F7008B178B17FD
:1002C8007408FF0073088A0072088400710E8300A6
:1002D800FE0E7E0E090083120313A301A4018312EC
:1002E80003132408803AA2002108803A2202031D41
:1002F8007F292008230203180800013076067704B6
:10030800031D7329F601F701013083120313A307B4
:100318000318A40A0030A407732938300A128A1176
:10032800DA210A128A1100300A128A11DA210A1215
:100338008A1101300A128A11DA210A128A1106304A
:100348000A128A11DA210A128A110C300A128A1149
:10035800DA21080083120313A301A4012408803AB8
:10036800A2002108803A2202031DBC29200823028A
:1003780003180800013083120313A3070318A40A03
:100388000030A407B22983120313A50025088700AB
:10039800A03086006430A0000030A1000A128A1143
:1003A800AE21203083120313860008008312031342
:1003B800A50025088700803086006430A000003042
:1003C800A1000A128A11AE218312031386010800C4
:0403D8007A3400343F
:02400E0071FF40
:00000001FF
