:060000000A128A11FC2F18
:100EE200F500750883120313860002308700E8308C
:100EF200F0000330F1000A128A11962783120313BD
:100F020087010800F5007508831203138600033079
:100F12008700E830F0000330F1000A128A119627A8
:100F220001308312031387000800F301F4017408EF
:100F3200803AF2007108803A7202031DA22F7008F3
:100F42007302031808000130F3070318F40A003093
:100F5200F407982F38300A128A1171270A128A115F
:100F620000300A128A1171270A128A1101300A12FC
:100F72008A1171270A128A1106300A128A11712700
:100F82000A128A110C300A128A117127080083167C
:100F92000313860187010A128A11AB270A128A11EA
:100FA200C6300A128A1171270A128A1148300A12AF
:100FB2008A1183270A128A1145300A128A1183275D
:100FC2000A128A114C300A128A1183270A128A11D4
:100FD2004C300A128A1183270A128A114F300A12E0
:100FE2008A1183270A128A1121300A128A11832751
:0E0FF2000A128A11FB2F83010A128A11C82FDE
:02400E0071FF40
:00000001FF
