:060000000A128A11FC2F18
:100DA600F500750883120313860002308700883029
:100DB600F0001330F1000A128A11F8268312031389
:100DC60087010800F50075088312031386000330B7
:100DD60087008830F0001330F1000A128A11F826D5
:100DE60001308312031387000800F301F40174082D
:100DF600803AF2007108803A7202031D042F7008CF
:100E06007302031808000130F3070318F40A0030D0
:100E1600F407FA2E38300A128A11D3260A128A11DA
:100E260000300A128A11D3260A128A1101300A12D8
:100E36008A11D3260A128A1106300A128A11D3267B
:100E46000A128A110C300A128A11D3260800803041
:100E5600F6007608F900E830F6007608F800831602
:100E6600031386018701FF3088000A128A110D27B5
:100E76000A128A1179087802031CF92F79080A12D6
:100E86008A11D3260A128A1183120313081E3D2FD4
:100E960008080F39F6007608F700A52F31300A1238
:100EA6008A11E5260A128A11CB2F32300A128A11CC
:100EB600E5260A128A11CB2F33300A128A11E5264B
:100EC6000A128A11CB2F34300A128A11E5260A1229
:100ED6008A11CB2F35300A128A11E5260A128A1199
:100EE600CB2F36300A128A11E5260A128A11CB2F29
:100EF60037300A128A11E5260A128A11CB2F3830AA
:100F06000A128A11E5260A128A11CB2F39300A12E3
:100F16008A11E5260A128A11CB2F2A300A128A1163
:100F2600E5260A128A11CB2F30300A128A11E526DD
:100F36000A128A11CB2F23300A128A11E5260A12C9
:100F46008A11CB2F7708003A0319512F013A03195A
:100F5600582F033A03195F2F063A0319662F013AF1
:100F660003196D2F033A0319742F0E3A03197B2FB9
:100F7600013A0319822F033A0319892F063A0319F6
:100F8600902F013A0319972F033A03199E2FCB2F5F
:100F96008830F0001330F1000A128A11F8260A127E
:100FA6008A117908933A031DDA2FBF30F12F790899
:100FB600D33A031DE02F9330F12F7908A73A031D8A
:100FC600E62FD330F12F79087806031DF42F013070
:100FD6000A128A11D3260A128A117F30F600760881
:100FE600F9000130F6007608F9073D2F0A128A113A
:0A0FF600002883010A128A112A2F35
:02400E0071FF40
:00000001FF
