:060000000A128A11FC2F18
:100F1000F301F4017408803AF2007108803A720219
:100F2000031D942F70087302031808000130F307A3
:100F30000318F40A0030F4078A2F1F3083160313B6
:100F40008800850183120313081EF92F08080F3942
:100F5000F500F6017508F7007608F800C72F013094
:100F6000C52F0230C52F0330C52F0430C52F0530E3
:100F7000C52F0630C52F0730C52F0830C52F0930C3
:100F8000C52FC42F8501F22F0F308500F22F78086E
:100F9000003A0319CC2FF22F7708003A0319AF2F2C
:100FA000013A0319B12F033A0319B32F063A031973
:100FB000B52F013A0319B72F033A0319B92F0E3A87
:100FC0000319BB2F013A0319BD2F033A0319BF2F91
:100FD000063A0319C12F013A0319C22F033A031924
:100FE000C42FF22F8830F0001330F1000A128A115A
:100FF00088270A128A11002883010A128A119D2F5C
:02400E0071FF40
:00000001FF
